:0A0000000C947A010C9400000C949B
:10000A0000000C9400000C9400000C9400000C9466
:10001A0000000C9400000C9400000C9400000C9456
:10002A0000000C9400000C9400000C9400000C9446
:10003A0000000C9400000C9400000C9400000C9436
:10004A0000000C9400000C940000050720600000DA
:10005A0000000000005F00000007000700147F1482
:10006A007F14242A7F2A12231308646236495522F0
:10007A00500005030000001C2241000041221C0020
:10008A00082A1C2A0808083E080800503000000800
:10009A0008080808003030000020100804023E5109
:1000AA0049453E00427F400042615149462141454F
:1000BA004B311814127F1027454545393C4A4949A6
:1000CA003001710905033649494936064949291E4D
:1000DA00003636000000563600000008142241148B
:1000EA001414141441221408000201510906324959
:1000FA0079413E7E1111117E7F494949363E41417F
:10010A0041227F4141221C7F494949417F09090116
:10011A00013E414151327F0808087F00417F41007A
:10012A002040413F017F081422417F404040407FE8
:10013A000204027F7F0408107F3E4141413E7F094D
:10014A000909063E4151215E7F0919294646494956
:10015A00493101017F01013F4040403F1F204020BB
:10016A001F7F2018207F6314081463030478040394
:10017A00615149454300007F414102040810204172
:10018A00417F000004020102044040404040000157
:10019A0002040020545454787F4844443838444474
:1001AA004420384444487F3854545418087E09017E
:1001BA0002081454543C7F0804047800447D40002B
:1001CA002040443D00007F10284400417F40007CCD
:1001DA00041804787C0804047838444444387C14AD
:1001EA00141408081414187C7C080404084854548D
:1001FA005420043F4440203C4040207C1C204020A6
:10020A001C3C4030403C44281028440C5050503C80
:10021A004464544C44000836410000007F0000004A
:10022A004136080002010204027F4141417F000178
:10023A0003070F1F3F7FFF001027E80364000A002F
:10024A0001000010000110000100FFFFFFFFFEFD8A
:10025A00FBF700202020203120706C617965722024
:10026A003D3D3E2031202020202020203220706C6D
:10027A006179657273203D3D3E20322020202000A6
:10028A007072657373204320746F20737461727483
:10029A002E2E2E20207072657373203020746F20EA
:1002AA0072657365742E2E2E0025640058004F0067
:1002BA002D00582077696E004F2077696E004472CE
:1002CA006177000001002D4E414E00494E46000064
:1002DA000400040054020400A8015802010060014D
:1002EA005C020100B101CE020000F894EE27ECBBDB
:1002FA00F1E0FBBFEBBFE5BF8DE0A2E0BB27ED93CA
:10030A008A95E9F780E094E0A0E6ED930197E9F792
:10031A00EAEDF2E085919591009761F0A591B5918A
:10032A0005901590BF01F00105900D920197E1F734
:10033A00FB01F0CFEFE5EDBFE4E0EEBFC0E6D1E0B0
:10034A000C94FB050E94FA0CEA17FB071CF4EA81DD
:10035A00FB81E2C0E881F981DFC00E94FA0CAE1786
:10036A00BF071CF4EA81FB81D7C0E881F981D4C0B8
:10037A000E94010D0330E0E01E079CF420E030E00B
:10038A002330E0E03E0754F40E940A0D0E94120D49
:10039A0011F4E1E0BFC02F5F3F4FF2CF0F5F1F4F55
:1003AA00E9CFE0E0B7C00E94010D0330E0E01E078C
:1003BA009CF50E940A0D0E941C0DE058FE4FDF01B9
:1003CA000E94310FE617F70789F4A6E0A09FF00113
:1003DA00A19FF00DE058FE4F0E941C0DEE57FE4FF4
:1003EA00DF010E94310FE617F70709F012C00E94D9
:1003FA000A0DDF010E94240D19F4EAE0F0E08AC038
:10040A000E940A0DDF010E942A0D19F4E6EFFFEFA0
:10041A0081C00F5F1F4FC9CF20E030E02330E0E0FA
:10042A003E0764F50E94300D0D901C900E94380D15
:10043A000E94310FE015F10569F40E94380D0D9004
:10044A001C90AAE8B1E00E94400D0E94310FE0150D
:10045A00F10509F010C00E94300D0E94240D19F414
:10046A00EAE0F0E057C00E94300D0E942A0D19F40C
:10047A00E6EFFFEF4FC02F5F3F4FD0CF0E94460DF0
:10048A000E944B0DEA17FB0759F4A0918601B0911F
:10049A008701E0918E01F0918F01EA17FB0709F0BD
:1004AA0010C00E944B0D119719F4EAE0F0E032C037
:1004BA000E944B0DAF3FEFEFBE0719F4E6EFFFEFD7
:1004CA0029C0A0918201B09183010E94460DEA17CA
:1004DA00FB0759F4A0918601B0918701E0918A0146
:1004EA00F0918B01EA17FB0709F012C00E94500D28
:1004FA00E130A0E0FA0719F4EAE0F0E00BC00E944C
:10050A00500DEF3FAFEFFA0719F4E6EFFFEF02C025
:10051A00E0E0F0E00E94680F24960895AA930E94F2
:10052A00550D41DFAF01EAE0F0E0E417F50711F4F9
:10053A00FA0175C0E6EFFFEFE417F50711F4FA01C7
:10054A006EC016DFE03019F4E0E0F0E068C0EE813A
:10055A00E03099F12297E8E1E883ECEFE98300E0E3
:10056A0010E00330E0E01E0724F520E030E02330FD
:10057A00E0E03E07DCF40E940A0D0E94120D99F495
:10058A000E940A0DDF010E94400DE1E0F0E00E94A6
:10059A005C0DD8DEE883F9830E940A0DDF010E9410
:1005AA00400D0E946F0D2F5F3F4FE1CF0F5F1F4F2E
:1005BA00D8CFE881F981229632C02297E8EEE88303
:1005CA00E3E0E98300E010E00330E0E01E0724F5F1
:1005DA0020E030E02330E0E03E07DCF40E940A0D20
:1005EA000E94120D99F40E940A0DDF010E94400D2B
:1005FA00EFEFFFEF0E945C0DB0DEE883F9830E9403
:10060A000A0DDF010E94400D0E946F0D2F5F3F4FC0
:10061A00E1CF0F5F1F4FD8CFE881F98122960E9460
:10062A00660F299608952297E8EEE883E3E0E983C6
:10063A000E94550DEFEFFFEF2F013F0100E010E0A0
:10064A000330E0E01E076CF520E030E02330E0E004
:10065A003E0724F50E940A0D0E94120DE1F40E9441
:10066A000A0DDF010E94400D0E94740D0E94790D4F
:10067A00A1E054DFAF010E940A0DDF010E94400D84
:10068A000E946F0DEE81FF814E175F0724F4280147
:10069A0039014E835F832F5F3F4FD8CF0F5F1F4FC4
:1006AA00CFCF0E94660F289608950E947E0D0E9461
:1006BA00840D1497B4F5E4E0F0E00E94890D0E94DD
:1006CA008E0DE855FE4FE081E5BBEFE0E4BB9C9957
:1006DA0002C00E94930D9D9904C0E1E0F0E00E94DF
:1006EA00890D9E9904C0E2E0F0E00E94890D9F996D
:1006FA0004C0E3E0F0E00E94890D0E94990D14976E
:10070A0049F09C9BFECF9D9BFECF9E9BFECF9F9B5D
:10071A00FECF0895A5E0B0E00E94C70E0E949E0D8C
:10072A00C6CFC3CFAA24BB24CC24DD24E0E0E093C7
:10073A00A001E093A101ECEAF1E0FA93EA93A0E6C2
:10074A00B1E00E94630C0E947E0D0E94840D1397F3
:10075A0084F40E94930D0E94990D13973CF40E9411
:10076A00A60D0E946F0D0E94B60DF5CF0E949E0D38
:10077A00ECCF0E947E0D0E94840D18972CF40E94E3
:10078A00BE0D0E949E0DF7CF0E94C60DADE5B2E0E8
:10079A000E947B0A0E94CC0D0E94D90D189721F065
:1007AA000E94D90D199709F401C0F4CF0E94D90DFE
:1007BA00189719F4E1E0F0E04F010E94D90D19975A
:1007CA0019F4E2E0F0E04F010E947E0D0E94930DC1
:1007DA000E94C60DAAE8B2E00E947B0A0E94CC0DD4
:1007EA000E94D90D1C97D1F70E942407E3E0F0E09C
:1007FA00E093A201F093A3010E94840D0E945B0F73
:10080A0024F5ECEAF1E0FA93EA93E3EBF2E0FA93E7
:10081A00EA930E948E0D0E94EE0E0E94390F84E028
:10082A000E941F0C2896ACEAB1E00E94920AA4E644
:10083A00B0E00E94C70E0E942407A2EAB1E0ED913F
:10084A00FD913197FE93EE93D7CF08950E94240726
:10085A000E947E0D0E94840D569774F50E94930D96
:10086A000E94990D569704F50E94DE0D0E94240DF0
:10087A0029F40E94F50DA6EBB2E00EC00E94DE0D2F
:10088A000E942A0D29F40E94F50DA8EBB2E004C0DB
:10089A000E94F50DAAEBB2E00E947B0A0E94FC0DB1
:1008AA003A960E94890DDCCF0E948E0D3A96E0930B
:1008BA00A201F093A301CECF08950E947E0D0E945B
:1008CA00840D18972CF40E94BE0D0E949E0DF7CF3E
:1008DA000E947E0D0E94840D13970CF06BC00E943B
:1008EA00930D0E94990D13970CF061C00E94010E9E
:1008FA00EA0FFB1FFF93EF93708181810E94A60D7F
:10090A000E94310FE70FF81FAF91BF91ED93FC934F
:10091A000E948E0D3396A0E9B1E0EE0FFF1FEA0F99
:10092A00FB1FFF93EF93708181810E94990DE6E08E
:10093A000E94050FE258FE4FDF010E948E0DEE0F56
:10094A00FF1F0E94070EE70FF81FAF91BF91ED93AB
:10095A00FC930E94FC0D0E94840DEA17FB0771F4B8
:10096A000E94A60D0E94310FA0919C01B0919D0199
:10097A00EA0FFB1FE0939C01F0939D010E94FC0D7E
:10098A000E94840DAE0FBF1F129771F40E94A60D2C
:10099A000E94310FA0919E01B0919F01EA0FFB1FA7
:1009AA00E0939E01F0939F010E94B60D9ACF0E9498
:1009BA009E0D90CF0895E091A001F091A10130978A
:1009CA0009F0F5C0E2E0F0E0E815F90501F56DDEA1
:1009DA000E94840D139721F00E94990D139709F430
:1009EA0016C00E94A60D0E94310F309781F40A2C7E
:1009FA000B2829F40E94A60DE1E0F0E004C00E9451
:100A0A00A60DEFEFFFEFED93FC930E940C0EE1E0D1
:100A1A00F0E0E815F90509F084C00A2C0B28B1F4B6
:100A2A0044DE0E94840D139721F00E94990D1397BA
:100A3A0009F40CC00E94A60D0E94310F309731F4C0
:100A4A000E94A60DE1E0F0E0ED93FC93E1E0F0E016
:100A5A00EA15FB0509F063C0EC15FD0509F04AC06B
:100A6A000E94460DE130A0E0FA0721F4EAE8F1E03D
:100A7A000E94150E0E944B0D119791F00E94500D85
:100A8A00319771F0E0918A01F0918B01319741F031
:100A9A00E0918E01F0918F01E130A0E0FA0721F494
:100AAA00E6E8F1E00E94150EE0918001F0918101E3
:100ABA00319741F0E0918401F0918501E130A0E0A5
:100ACA00FA0731F4EFEFFFEFE0937E01F0937F0135
:100ADA00E0918801F0918901319741F0E0918C0110
:100AEA00F0918D01E130A0E0FA0721F4EEE8F1E09F
:100AFA000E94150EE1E0F0E0EC15FD0581F093DDB2
:100B0A00F201A6E0B0E00E94FD0EE258FE4FDF01BE
:100B1A00F301EE0FFF1FAE0FBF1F0E94740D0E945C
:100B2A000C0E0E948E0D0E94E90E0E94990DEA0F8A
:100B3A00FB1FE093A601F093A7010E94D90D1D9710
:100B4A0009F4F0DD83DEB9DE0E947E0D0E94840D79
:100B5A001897E4F40E94010E0E94070EE330A0E009
:100B6A00FA0719F4E1E0F0E00AC00E94010E0E94BF
:100B7A00070EED3FAFEFFA0731F4EFEFFFEFE09327
:100B8A00A001F093A1010E949E0DE0CFE9E0F0E000
:100B9A00EC15FD0521F40E941A0E109709F006C003
:100BAA00E2E0F0E0E093A001F093A10104CF0E94FB
:100BBA001A0E119729F40E941F0EACEBB2E013C073
:100BCA000E941A0EAF3FEFEFBE0729F40E941F0ED4
:100BDA00A2ECB2E008C00E941A0E129731F40E94E9
:100BEA001F0EA8ECB2E00E947B0A08952697E0E067
:100BFA00EABBEBBBE7BBE8BBE4BBE5BBE1BBE2BBE3
:100C0A00E3BFE2BFECBFEFBDEEBDEDBDECBDE7BD9E
:100C1A00E6BDEBBDEABDE9BDE8BDE2BDE5BDE4BDAB
:100C2A00E3BDE9BFE5BFE4BFEAB9E0E8E8B9E0E05F
:100C3A00E0BFE6B9EDB9E6BFE4E5F0E0E883F983A1
:100C4A00E0E0EA83EB83EC83ED83DE0193D0EFEF00
:100C5A00E5BBEFE0E4BB66DDF9DDADDE0E94CC0D5D
:100C6A000E94D90D1D9709F45DDDF0DDA4DEF6CFF3
:100C7A00FFCF0000C09A00000895C098C498C59894
:100C8A0008951A93F6DF19B3C098E12F19910895C0
:100C9A00AA931A93E0E0EABBC19AC298E981EF5F8E
:100CAA001E2F10FF02C0C49A01C0C49811FF02C0CF
:100CBA00C59A01C0C598E5DFE078E9F7188126C032
:100CCA00AA93A981E5DF0E94240E20C0E091AF011A
:100CDA00EA93E091AE01EF73E064AE2FF1DFE091A9
:100CEA00AF01EA93E091B001E86BAE2FE9DF089516
:100CFA00AA93E981E093AE01E295EF70E695E69555
:100D0A00E093AF01E881E093B001E0DF2296089515
:100D1A00A091AE01AF5FA093AE01A03818F0E0E059
:100D2A00E093AE01E091AE01EF7331F4E091AE01D0
:100D3A00EA93A091B001DCDF0895AA93A091AF01D4
:100D4A00A7DFC29A0E94240E21960895A091AF01AE
:100D5A009FDFE0E0EABBC19AC29A93DF0895AA93A3
:100D6A00E981EA93E9810E942D0EF0DFAFDFEEDF21
:100D7A000C94920CBA93AA931A93B89AB99ABA9AFB
:100D8A00BB9AC39ABC9ABD9A78DFC398A4E6B0E02E
:100D9A000E94C70EC39A10E0123040F41A93AFE3D0
:100DAA008FDF1A931395A0EC8BDFF6CFE1E0E09387
:100DBA006101E0E0E0936201E981FA813097A9F0EC
:100DCA00A981BA810E94310FE0936501F09366010F
:100DDA0012960E94310FE0937A01F0937B01A98168
:100DEA00BA8114960E94310F0AC0E0E0F0E0E09365
:100DFA006501F0936601E0937A01F0937B01E09339
:100E0A007C01F0937D01E1E0E0936701E0936801E2
:100E1A00E0936901EFEFE0936A01E1E0E093710189
:100E2A00E2E7F1E0FA93EA93EFEFEA93A8E0B0E0A1
:100E3A000E94530C04D0E1E018810C94D90C0E9452
:100E4A00610F00E030E0E0916201E03009F00FEF5D
:100E5A00383078F4E0E0EA93A32F3F5F49DF10E0EF
:100E6A00A12F1F5FA03820F4A02F0E94330EF8CFC5
:100E7A00EFCFE0E0EA93A0E03BDFE0E0EA93A0E016
:100E8A005DD30E94680F0C94F80CAA931A93ED8113
:100E9A00EA93AD8164DF1E2F19DFE981E73011F093
:100EAA00E83039F4EB81EA93AA810E94940CEB832F
:100EBA0008C0E33021F4EB81E095EB8302C0E03017
:100ECA0021F4EA81E0951E2302C0E23029F4EA8186
:100EDA00AB81EA231E2B0EC0E13029F4EA81AB81F3
:100EEA00EA231E2707C0E43029F4EA81E095AB81A2
:100EFA00EA2B1E23A12F0E94330E188126960895ED
:100F0A00AA9323970E945F0FA889A03848F4AF8557
:100F1A00A03430F4AE85A03019F0AD85A03009F4C4
:100F2A00C8C1EE85E887A889BB27EE85F0E0AE0F39
:100F3A00BF1FA138E0E0BE0720F0A889E0E8EA1B5D
:100F4A00EE872D85AF85BB27ED85F0E0AE0FBF1F7D
:100F5A00A134E0E0BE0720F0AF85E0E4EA1BED87AC
:100F6A00A985A63009F05BC0EC85E13009F4A1C17E
:100F7A00E33039F4E0917C01F0917D01309709F476
:100F8A0098C10885ED85E695E695E6953E2FE22F10
:100F9A00E77019F4AD852A17E9F0A02FBB27E32FD4
:100FAA00F0E00E94FD0EAA85BB850E94370E2695A9
:100FBA0026952695532F5F935F5FE22FAF91EA172D
:100FCA0048F0102FE12F1150E03019F00E943C0E2A
:100FDA00F9CFF1CFAE850A1711F1EE85AA85BB8547
:100FEA00F0E00E94370EED85E77009F03F5F20E0E0
:100FFA002F932F5FE32FAF91AE1788F41E851F93AF
:10100A001F5FE02FAF91AE1718F40E943C0EF7CF86
:10101A00EE85AE81BF81F0E00E94370EE9CFEF8501
:10102A00E7703E2FED85E03009F443C1EA85FB8580
:10103A00EE83FF8310E00889303009F065C0AD8582
:10104A00A83008F45CC0E985E03011F0E33009F417
:10105A0002C0E73009F402C0E83009F402C0E63001
:10106A0009F402C0E93009F402C0EA3021F40A9313
:10107A00E8890E942D0E1F931F5FEE85AF91AE1770
:10108A00B8F5A985A63061F461DE20DE0E94490E1A
:10109A00FA93EA935BDEAE2F0E94DB0C39DE27C09F
:1010AA00E985E93011F450E00EC0EA3011F45FEF3F
:1010BA000AC00E94490E0E94520E5E2FE985E7304F
:1010CA0011F0E83021F40E94580E5E2F06C0E3307A
:1010DA0011F4509502C0E03021F4A52F0E94330E7E
:1010EA0006C00E945C0EEFEFEA93AD85CEDEC3CF59
:1010FA00EF85E85FEF87ED85E850ED87D1C05D8524
:10110A0020E0E0E0ED877AC0E32FAD85AE0FA9308D
:10111A0020F42D85E0E0ED8703C0E8E0E31B2E2FE5
:10112A003A93A22F0E94890C4E2FE985E630F1F4FA
:10113A001F931F5FEE85AF91AE17B8F40E94620E3F
:10114A00AE2FE32F0E94E10E0E94690EE32FA42F17
:10115A000E94E10EE095E1215E2B0E94490EFA936E
:10116A00EA93A52F0E94DB0CE3CF2CC0E93011F4DF
:10117A0050E003C0EA30A9F45FEF0E94580EAE2F88
:10118A00E32F0E94D90E5E2F1F931F5FEE85AF914A
:10119A00AE1730F40E945C0E4A93A0E076DEF4CFDC
:1011AA0011C01F931F5FEE85AF91AE1758F40E94CE
:1011BA00740EAE2FE32F0E94D90EEA934A93AD859F
:1011CA0064DEEFCFED85E03009F473C0AD85A83059
:1011DA0028F4ED85E21B5E2FE0E003C0532FED8576
:1011EA00E850ED8710E0EF85E85FEF87E8E0E31B62
:1011FA002E2F0889EA85FB85EE83FF83E52FF0E031
:10120A00E85CFD4F4491E985E630F1F41F931F5FD6
:10121A00EE85AF91AE17B8F40E94620EAE2FE22FA0
:10122A000E94D90E0E94690EE22FA42F0E94D90EA5
:10123A00E095E1215E2B0E94490EFA93EA93A52FCD
:10124A000E94DB0CE3CF2CC0E93011F450E003C05C
:10125A00EA30A9F45FEF0E94580EAE2FE22F0E94E7
:10126A00E10E5E2F1F931F5FEE85AF91AE1730F42C
:10127A000E945C0E4A93A0E008DEF4CF11C01F93CF
:10128A001F5FEE85AF91AE1758F40E94740EAE2F11
:10129A00E22F0E94E10EEA934A93AD85F6DDEFCF85
:1012AA00E885AA85BB85F0E0EA0FFB1FEA87FB8782
:1012BA00B9CE0E94660F619608950E94810E24F0AD
:1012CA00E0E0F0E00C94920CA881B981A038E0E04B
:1012DA00BE0724F0EFE7F0E00C94920CE881F98164
:1012EA000C94920C0E94810E24F0E0E0F0E00C9441
:1012FA00920CA881B981A034E0E0BE0724F0EFE3A4
:10130A00F0E00C94920CE881F9810C94920CBA9357
:10131A00AA9323970E94880E8F01002E012A19F49E
:10132A00E0E0F0E05FC00E948F0E0F820E948F0EF5
:10133A000E820E948F0E0886EB85A885EA1718F49C
:10134A00E0E0F0E04FC0F8010F5F1F4F5491A8850D
:10135A00BB27EE27A50FBE1FEB85F0E0EA17FB07B8
:10136A0018F0E0E0F0E03EC0EE81E695E695E695FD
:10137A004E2FEE81E77009F04F5FEF81E030A1F068
:10138A00A985BA85EC93A885EB85EA1BF0E0DF0115
:10139A00EF81F0E00E94FD0EDF01E42FF0E00E94F1
:1013AA00FD0EE00FF11F1EC09801E52FF0E00E0FB1
:1013BA001F1FA885AF5FA887A150EB85AE1760F401
:1013CA00F9012F5F3F4FA491B0E0E42FF0E00E94B3
:1013DA00FD0E0E0F1F1FEDCFF901E491A985BA8505
:1013EA00EC93F8010E94660F2C960895E0E0E093D2
:1013FA006301A0916401BB270E94940EF0E0AE0F36
:10140A00BF1FE0916801F0E0AE0FBF1F6BDFE093F2
:10141A0064010895AA9321970E94880E309709F4CF
:10142A005FC0AF81AA3009F459C0EF81EA93DE01A7
:10143A0017966DDFAF01309709F454C0E091670148
:10144A00AE81EA0F3E2FA0916301BB27F0E0EA0FBD
:10145A00FB1F8F010138E0E01E0718F0032F112748
:10146A00C5DFE0916301EA93E0916401EA93E885BC
:10147A00EA930E94940EEA93E1E0EA935A934A931C
:10148A00A7E03EDDE0916301AE81EA0FEA93E091C5
:10149A006401EA93E0916701EA930E94940EEA9349
:1014AA00E0E0EA930E94790DA9E02ADDE091630168
:1014BA00EA93A09164010E94940EEA0FEA933A9388
:1014CA00E0916801EA93E0E0EA930E94790DA9E0CD
:1014DA0017DDE0E8F0E0E017F10711F487DF02C05A
:1014EA00009363010E94660F28960895BA93AA93FF
:1014FA001A93EC81EA93AC8121D0E981FA81319681
:10150A00E983FA833197E4911E2FE03019F0A12F75
:10151A0081DFF3CF18810C94610CBA93AA931A93C2
:10152A00A981BA81ED91A983BA831E2FE03019F0FF
:10153A00A12F70DFF5CF18810C94D90CAA93A98139
:10154A00BB27BBDEE0936301A881BB27CBDEE09318
:10155A0064010C94920CBA93AA931A930A93AA81DF
:10156A00BB8112960E94310F309759F1AA81BB8133
:10157A0014960E94310F8F01309761F00230E0E03B
:10158A001E0798F0F80131978F01AA81BB81149642
:10159A00ED93FC93AA81BB811296ED91FD91319650
:1015AA00FE93EE933197AC81A083AA81BB810E94FE
:1015BA00310FFF232AF0ED91FD913196FE93EE93C0
:1015CA0004C0AA81BB810E94740D1981088174C16B
:1015DA00BA93AA9326970E945F0F10E0AC85BD8547
:1015EA000E946F0DEA89FB893196EA8BFB8B319752
:1015FA00E4912E2FE03009F415C1E12FE03039F4DF
:10160A00253211F411E002C00E949B0E0AC1E1309A
:10161A00A9F4253219F40E949B0E02C112E040E09F
:10162A0000E02D3211F401E0FCC02B3211F44BE240
:10163A00F8C0203211F440E2F4C002C0E23039F4BA
:10164A0050E013E0203311F40068EBC003C0E3302C
:10165A0009F0E7C0203310F02A3308F007C0AAE0E7
:10166A005A9F502DE22FE0535E0FDBC0E22FE33684
:10167A0049F40E94A20EE889F989A481AA930E94DA
:10168A00A80ECEC0E33741F40E94A20E0E94AE0E0D
:10169A000E94700C1E2F0AC0E03761F40E94A20E4D
:1016AA000E94AE0E0E947C0C1E2F086002600F770B
:1016BA0030E034C0E43611F0E93611F4046002C0B7
:1016CA00E53731F4E2E4F2E0EE83FF8315E00CC083
:1016DA00E83511F4086003C0E83709F0A1C0ECE46A
:1016EA00F2E0EE83FF8314E002FF14C00E94A20E10
:1016FA000E94B80EAB85AA233AF4EA85FB850E94BC
:10170A00D50EEA87FB874DE2403011F01F5F01C01A
:10171A000B7F04C00E94A20E0E94B80E00FD11C0E9
:10172A00151778F407FF08C002FF04C00B7F242FA7
:10173A00115001C020E301C020E20E949B0E5150CB
:10174A00EFCF312F01FF17C03030A1F003FF06C0E1
:10175A00EE81FF812591EE83FF8305C0AE81BF81B3
:10176A002D91AE83BF830E949B0E503009F05150D9
:10177A003150EACF4BC020E3EE81FF810E94350F42
:10178A00E887F987EE81FF813296EE83FF83E88549
:10179A00F985AA85BB85AE17BF0750F02F5FA885CC
:1017AA00B985EA85FB85EA1BFB0BEA87FB87EFCF46
:1017BA002A3328F003FF02C0295F01C0295D04FD16
:1017CA001AC0213320F4A885B985119709F409C0F4
:1017DA00531710F000FF01C013C020E207FF0BC02F
:1017EA0020E3006102FF07C00B7F4A930E94A80E04
:1017FA00503009F051500E949B0E503009F0515060
:10180A003150A885B985129708F0B5CF00FF08C0F6
:10181A00503031F05150E0E2EA930E94A80EF8CF1E
:10182A0010E0E0CEAC85BD850E94310F0E94660FA4
:10183A0064960895FF92F82E26970E94610F0E94DF
:10184A00C00E309719F4EFEFFFEF23C0DE011696B2
:10185A000E94D10E8D010E94C00EEE83FF83E0E04C
:10186A00E887E987DE011A960E94D10E0E94310F9D
:10187A00FA93EA931A930A93E0EBFAE0FA93EA935B
:10188A00DE011A96A5DE9F01AE81BF81E0E0EC93EE
:10189A00F9010E94680F2A96FF900895BA93AA93B5
:1018AA00B981A881109631F0FC81EB816A8161933C
:1018BA001197E9F7EB81FC8125960895BA93AA93CB
:1018CA00E991F991A991B991CD0161916D9366233D
:1018DA00E1F7FC010895BA93AA93A991B991EE2769
:1018EA00FF276D91662311F03196FBCF0895BA93C5
:1018FA00AA93AA27BB27E991F9910590002011F034
:10190A001196FBCFFD010895AA93E881F0E0E85C07
:10191A00FD4FA491E9810E94D90E22960895AA93B7
:10192A001A93E981E73011F0EA3019F41091610154
:10193A0009C0E93019F41091620104C0E830A1F439
:10194A0010917101E0916201E03049F0103019F014
:10195A00EFEF188129C0EA81E095188125C010307F
:10196A0019F4E0E0188120C0EA8118811DC0BA93F9
:10197A00AA93EA81E13021F4E881F981E49114C063
:10198A00E23029F4A881B9810E943E0F0DC0E330EC
:10199A0041F4A881B981E0917A01F0917B0109951E
:1019AA0003C0A881B981EC9123960895AA93EB818B
:1019BA00E03029F4E881A981BA81EC9314C0E230BD
:1019CA0031F4E881A981BA810E944A0F0CC0E33040
:1019DA0051F4E981FA81FA93EA93AA81E0917C01B0
:1019EA00F0917D01099524960895BA93AA93E88106
:1019FA00F981AA81BB8108950E94610F00E010E07D
:101A0A0020E030E000E010E00895A6E0A09FF00199
:101A1A00A19FF00DE258FE4F0895DF01F901EE0F84
:101A2A00FF1FAE0FBF1F0E94310F309708956081CC
:101A3A007181A6E0A09FF001A19FF00D08950E9478
:101A4A00310FE130A0E0FA0708950E94310FEF3F0D
:101A5A00AFEFFA070895F901AEE7B1E0EE0FFF1F05
:101A6A00AE0FBF1F0895A4E8B1E0F901EE0FFF1F02
:101A7A00AE0FBF1F0895F901EE0FFF1FAE0FBF1F74
:101A8A000895E0918601F09187010895A0917E0161
:101A9A00B0917F010895E0918201F0918301089548
:101AAA000E945F0F00E010E020E030E00895ED931F
:101ABA00FC93E881F981FA93EA93EB85FC853196E8
:101ACA00FA93EA93EC850E94F30EAE2F0E949302DA
:101ADA00DF010895E0E0F0E0ED93FC930895EFEF65
:101AEA00FFEFED93FC930895E0E0F0E0FA93EA93B8
:101AFA000895E0E0E093A201E093A3010895A09184
:101B0A00A201B091A3010895E093A401F093A50165
:101B1A000895E091A201F091A3010895E0E0E09315
:101B2A00A401E093A5010895A091A401B091A50193
:101B3A000895A2EAB1E0ED91FD913196FE93EE93FC
:101B4A000895DDDFE6E00E94050FE258FE4FDF014F
:101B5A00E091A401F091A501EE0FFF1FAE0FBF1F88
:101B6A000895A4EAB1E0ED91FD913196FE93EE93CA
:101B7A000895CFDFA0E9B1E0EE0FFF1FAE0FBF1F40
:101B8A00A9CF0E942407E0E0EA93EA9308950E940D
:101B9A005A03BFDF0E94E90EC7DFEA0FFB1FE0937B
:101BAA00A601F093A7010895A091A601B091A701FB
:101BBA000895A5DFEAE0F0E00E941E0FA6E0B0E07B
:101BCA000E94FD0EE258FE4FBF01AEDFEAE0F0E0F0
:101BDA000E941E0FDB01EE0FFF1FAE0FBF1F0895FD
:101BEA00E091A401EA93E091A201EA930895E091B9
:101BFA00A401F091A50108958CDFA0E9B1E0EE0FF0
:101C0A00FF1F0895AE0FBF1F0E94310F0895F501FF
:101C1A000E94F80EAE2EBB24F60131966F0108958C
:101C2A00AFEFBFEFA083B1830895A091A001B09157
:101C3A00A1010895E6E4EA93E2E3EA930895C198DC
:101C4A00EFEFEABBE881EBBB0E943E060C9442062A
:101C5A00E695E695E695AE2F0C947D060E94A206BF
:101C6A000C948D06EA0FFB1FEE83FF830895EC8523
:101C7A00EA93EF81F8853196EF83F8873197FA93E3
:101C8A00EA93A0E00C94DB0CEC85EA93EF81F885EB
:101C9A003196EF83F8873197089566277727DF0112
:101CAA00CB010C94BC0C5A93AA850C94940C0A93FD
:101CBA000395E889EA935A9308950A930395A889A4
:101CCA000E94B406E42308955E2FEC85EA93AF815F
:101CDA00B885882799270E94BC0C1E2E08950A935E
:101CEA000395E889EA93EE85EA93E985FA853196C0
:101CFA00E987FA873197D1CFBA93AA93A881B98194
:101D0A000E945B0F08950E945F0FE0916501F091B8
:101D1A0066010895F8010F5F1F4F04900895E0913E
:101D2A006501F09166013196E49108952A93AD8593
:101D3A00BE85EF85F88909950895E889F989349768
:101D4A00E88BF98B0895AD85BE85EF85F8890995ED
:101D5A000895A889B98914960E94310FEE83FF83EA
:101D6A00AE81BF810895A889B98914960E94310F5E
:101D7A00EA87FB870895DE011C960E94D10E0E9415
:101D8A00310F0895109639F080ED97E00197F1F739
:101D9A00A8951197C9F708950024AF0DB01D0895AD
:101DAA00F195E195F0400895EE230E2EEA2F19F0F1
:101DBA00EE0F0A94E9F70895EE230E2EEA2F19F092
:101DCA00E6950A94E9F70895EE0FFF1FEE0FFF1F3D
:101DDA0008956F2F660F660B762F0895EE23E1E0C4
:101DEA0009F0EE270895EF2BE1E009F0E0E008950D
:101DFA00FA9FF02DEB9FF00DEA9FE02DF10D08956B
:101E0A006E2F6A9FF0016B9FF00D08950024112434
:101E1A0090E1AA0FBB1F001C111C0E1A1F0A18F40E
:101E2A000E0E1F1E01C0A1609A9599F7FD01D001FF
:101E3A00089504D0EBDF0EF4B3DF0895E894F7FFBA
:101E4A0002C0AEDF6894B7FF06C0A095B0951196A0
:101E5A0000F8039400FA0895ED91FC911197089502
:101E6A000590F491E02D08957A936A93FA93EA9390
:101E7A000895E199FECFFF93FFB7F894AEBBBFBBBD
:101E8A00E09AEDB3FFBFFF910895E19B02C0A895C8
:101E9A00FCCF9FB7F894AEBBBFBBE09A8DB3E817EF
:101EAA0019F0EDBBE29AE19A9FBF089500240A1641
:101EBA000B0608955A934A933A932A931A930A93CC
:101ECA0008955D814C813B812A8119810881089599
:00000001FF
